:100000000A128A11172E00308A000408840A820717
:1000100000344F34663466340A3400344F346E345E
:040020000A3400346A
:100C2E00FD0183010A128A11E12E831203130815A6
:100C3E0000000000831203130811000000000800DA
:100C4E00322EE830F0000330F1000A128A114426E9
:100C5E000A128A11322E0130F4020030031CF50301
:100C6E00F502FF307506031D3E2EFF307406031D80
:100C7E00412E422E282E432E08007009F2007109D3
:100C8E00F300F20A0319F30A7208FF3EF00073082C
:100C9E000318013EFF3EF1007108831203138F000B
:100CAE0070088E000C1010145C2E0C1C5F2E602E23
:100CBE005C2E10100800FB007030F9007908FA0065
:100CCE006F2E7C080A128A114D270A128A116F2E76
:100CDE000130FB07FF307B0784000A128A110320C4
:100CEE000A128A11F9007908FC00FC08031D802EF7
:100CFE00812E682E822E0800F5000A128A11152701
:100D0E000A128A1183120313081088100F30080577
:100D1E00F3007508F039730488000A128A111C2634
:100D2E000A128A110F30831203130805F300750897
:100D3E00F40003300310F40DFF3E031DA12E03102B
:100D4E00740DF039730488000A128A111C260A12D7
:100D5E008A11B12E0800F5000A128A1115270A12FF
:100D6E008A1183120313081488100F300805F3003C
:100D7E007508F039730488000A128A111C260A12AB
:100D8E008A110F30831203130805F3007508F4005F
:100D9E0003300310F40DFF3E031DD02E0310740D0F
:100DAE00F039730488000A128A111C260A128A115D
:100DBE00E02E08008316031788018901831203139E
:100DCE0087018316031387010A128A118D270A12CF
:100DDE008A11F12E01308312031387060718F82E9D
:100DEE00F92E002F06300A128A1162260A128A1173
:100DFE00072F01300A128A1162260A128A11072F52
:100E0E00E830F4000330F5000A128A1127260A1280
:100E1E008A11F12EF12E0A128A110028831603135D
:100E2E0008080839F0388800831203130810881454
:100E3E00202F08150000831203130808F039F00064
:100E4E007008F20008110000831203130815000049
:100E5E00831203130808F00004300310F00CFF3E59
:100E6E00031D342F70080F397204F1007108F2005F
:100E7E000811F21B432F442F202F881083160313C3
:100E8E0008080839880072084C2F0800F800780806
:100E9E000D3A0319532F542F5B2F78080A3A031D6E
:100EAE00592F5A2F602F5B2FFD010314FD0D8C2F30
:100EBE008C2F7D08031D642F712F01300A128A11A9
:100ECE0083260A128A1102300A128A1183260A1206
:100EDE008A11FD010A128A1115270A128A11F600CB
:100EEE007608F7007708083A031D7E2F7F2F852F8F
:100EFE00C0300A128A1183260A128A1178080A1241
:100F0E008A11B2260A128A118C2F0800831203133B
:100F1E008801083083160313880083120313081008
:100F2E00881008119830F0003A30F1000A128A1138
:100F3E0044260A128A1130308312031388000A12D3
:100F4E008A111C260A128A110430F0001030F100AA
:100F5E000A128A1144260A128A11303083120313A0
:100F6E0088000A128A111C260A128A116430F000B7
:100F7E000030F1000A128A1144260A128A1130300A
:100F8E008312031388000A128A111C260A128A1170
:100F9E000A128A1115270A128A112030831203139E
:100FAE0088000A128A111C260A128A1128300A1287
:100FBE008A1183260A128A1108300A128A11832690
:100FCE000A128A1101300A128A1183260A128A1114
:100FDE0006300A128A1183260A128A110F300A125B
:100FEE008A1183260A128A11831203130814FF2F03
:020FFE000800E9
:02400E00D4E0FC
:00000001FF
